{
	"data": {
		"bytecode": {
			"linkReferences": {},
			"object": "6080604052348015600e575f5ffd5b50335f5f6101000a81548173ffffffffffffffffffffffffffffffffffffffff021916908373ffffffffffffffffffffffffffffffffffffffff160217905550610e6f8061005b5f395ff3fe608060405234801561000f575f5ffd5b5060043610610060575f3560e01c806313d7966c146100645780637eea7009146100965780638da5cb5b146100c6578063a6aedac8146100e4578063eb1841b714610114578063fd4a77f114610130575b5f5ffd5b61007e600480360381019061007991906105db565b61014c565b60405161008d93929190610685565b60405180910390f35b6100b060048036038101906100ab91906105db565b610207565b6040516100bd91906106c1565b60405180910390f35b6100ce61027a565b6040516100db9190610719565b60405180910390f35b6100fe60048036038101906100f9919061075c565b61029e565b60405161010b91906107a1565b60405180910390f35b61012e600480360381019061012991906108e6565b6102bb565b005b61014a600480360381019061014591906105db565b6103fc565b005b6002818154811061015b575f80fd5b905f5260205f2090600302015f91509050805f0154908060010180546101809061095a565b80601f01602080910402602001604051908101604052809291908181526020018280546101ac9061095a565b80156101f75780601f106101ce576101008083540402835291602001916101f7565b820191905f5260205f20905b8154815290600101906020018083116101da57829003601f168201915b5050505050908060020154905083565b5f600280549050821061024f576040517f08c379a0000000000000000000000000000000000000000000000000000000008152600401610246906109d4565b60405180910390fd5b60028281548110610263576102626109f2565b5b905f5260205f209060030201600201549050919050565b5f5f9054906101000a900473ffffffffffffffffffffffffffffffffffffffff1681565b6001602052805f5260405f205f915054906101000a900460ff1681565b5f5f9054906101000a900473ffffffffffffffffffffffffffffffffffffffff1673ffffffffffffffffffffffffffffffffffffffff163373ffffffffffffffffffffffffffffffffffffffff1614610349576040517f08c379a000000000000000000000000000000000000000000000000000000000815260040161034090610a8f565b60405180910390fd5b5f6002805490509050600260405180606001604052808381526020018481526020015f815250908060018154018082558091505060019003905f5260205f2090600302015f909190919091505f820151815f015560208201518160010190816103b29190610c4d565b506040820151816002015550507f59c904fb10ffd1ec07ea779582d8edc3dbf128bcd3e06442ca216bf782c2f45f81836040516103f0929190610d1c565b60405180910390a15050565b60015f3373ffffffffffffffffffffffffffffffffffffffff1673ffffffffffffffffffffffffffffffffffffffff1681526020019081526020015f205f9054906101000a900460ff1615610486576040517f08c379a000000000000000000000000000000000000000000000000000000000815260040161047d90610d94565b60405180910390fd5b60028054905081106104cd576040517f08c379a00000000000000000000000000000000000000000000000000000000081526004016104c4906109d4565b60405180910390fd5b6001805f3373ffffffffffffffffffffffffffffffffffffffff1673ffffffffffffffffffffffffffffffffffffffff1681526020019081526020015f205f6101000a81548160ff021916908315150217905550600160028281548110610537576105366109f2565b5b905f5260205f2090600302016002015f8282546105549190610ddf565b925050819055507f3d4cce7ad04b8a795e6c17386ca019b9ccfcc5fe97159cc7b4cf8ba0827d9a74338260405161058c929190610e12565b60405180910390a150565b5f604051905090565b5f5ffd5b5f5ffd5b5f819050919050565b6105ba816105a8565b81146105c4575f5ffd5b50565b5f813590506105d5816105b1565b92915050565b5f602082840312156105f0576105ef6105a0565b5b5f6105fd848285016105c7565b91505092915050565b61060f816105a8565b82525050565b5f81519050919050565b5f82825260208201905092915050565b8281835e5f83830152505050565b5f601f19601f8301169050919050565b5f61065782610615565b610661818561061f565b935061067181856020860161062f565b61067a8161063d565b840191505092915050565b5f6060820190506106985f830186610606565b81810360208301526106aa818561064d565b90506106b96040830184610606565b949350505050565b5f6020820190506106d45f830184610606565b92915050565b5f73ffffffffffffffffffffffffffffffffffffffff82169050919050565b5f610703826106da565b9050919050565b610713816106f9565b82525050565b5f60208201905061072c5f83018461070a565b92915050565b61073b816106f9565b8114610745575f5ffd5b50565b5f8135905061075681610732565b92915050565b5f60208284031215610771576107706105a0565b5b5f61077e84828501610748565b91505092915050565b5f8115159050919050565b61079b81610787565b82525050565b5f6020820190506107b45f830184610792565b92915050565b5f5ffd5b5f5ffd5b7f4e487b71000000000000000000000000000000000000000000000000000000005f52604160045260245ffd5b6107f88261063d565b810181811067ffffffffffffffff82111715610817576108166107c2565b5b80604052505050565b5f610829610597565b905061083582826107ef565b919050565b5f67ffffffffffffffff821115610854576108536107c2565b5b61085d8261063d565b9050602081019050919050565b828183375f83830152505050565b5f61088a6108858461083a565b610820565b9050828152602081018484840111156108a6576108a56107be565b5b6108b184828561086a565b509392505050565b5f82601f8301126108cd576108cc6107ba565b5b81356108dd848260208601610878565b91505092915050565b5f602082840312156108fb576108fa6105a0565b5b5f82013567ffffffffffffffff811115610918576109176105a4565b5b610924848285016108b9565b91505092915050565b7f4e487b71000000000000000000000000000000000000000000000000000000005f52602260045260245ffd5b5f600282049050600182168061097157607f821691505b6020821081036109845761098361092d565b5b50919050565b7f4944206b616e646964617420746964616b2076616c69640000000000000000005f82015250565b5f6109be60178361061f565b91506109c98261098a565b602082019050919050565b5f6020820190508181035f8301526109eb816109b2565b9050919050565b7f4e487b71000000000000000000000000000000000000000000000000000000005f52603260045260245ffd5b7f48616e7961206f776e65722079616e672062697361206d656c616b756b616e6e5f8201527f7961000000000000000000000000000000000000000000000000000000000000602082015250565b5f610a7960228361061f565b9150610a8482610a1f565b604082019050919050565b5f6020820190508181035f830152610aa681610a6d565b9050919050565b5f819050815f5260205f209050919050565b5f6020601f8301049050919050565b5f82821b905092915050565b5f60088302610b097fffffffffffffffffffffffffffffffffffffffffffffffffffffffffffffffff82610ace565b610b138683610ace565b95508019841693508086168417925050509392505050565b5f819050919050565b5f610b4e610b49610b44846105a8565b610b2b565b6105a8565b9050919050565b5f819050919050565b610b6783610b34565b610b7b610b7382610b55565b848454610ada565b825550505050565b5f5f905090565b610b92610b83565b610b9d818484610b5e565b505050565b5b81811015610bc057610bb55f82610b8a565b600181019050610ba3565b5050565b601f821115610c0557610bd681610aad565b610bdf84610abf565b81016020851015610bee578190505b610c02610bfa85610abf565b830182610ba2565b50505b505050565b5f82821c905092915050565b5f610c255f1984600802610c0a565b1980831691505092915050565b5f610c3d8383610c16565b9150826002028217905092915050565b610c5682610615565b67ffffffffffffffff811115610c6f57610c6e6107c2565b5b610c79825461095a565b610c84828285610bc4565b5f60209050601f831160018114610cb5575f8415610ca3578287015190505b610cad8582610c32565b865550610d14565b601f198416610cc386610aad565b5f5b82811015610cea57848901518255600182019150602085019450602081019050610cc5565b86831015610d075784890151610d03601f891682610c16565b8355505b6001600288020188555050505b505050505050565b5f604082019050610d2f5f830185610606565b8181036020830152610d41818461064d565b90509392505050565b7f416e646120737564616820766f74696e672100000000000000000000000000005f82015250565b5f610d7e60128361061f565b9150610d8982610d4a565b602082019050919050565b5f6020820190508181035f830152610dab81610d72565b9050919050565b7f4e487b71000000000000000000000000000000000000000000000000000000005f52601160045260245ffd5b5f610de9826105a8565b9150610df4836105a8565b9250828201905080821115610e0c57610e0b610db2565b5b92915050565b5f604082019050610e255f83018561070a565b610e326020830184610606565b939250505056fea26469706673582212204e16f00dc8da6d3cd0e26faf62091153548c6d05cffe49e1a6e9540de3cb57dd64736f6c634300081e0033",
			"opcodes": "PUSH1 0x80 PUSH1 0x40 MSTORE CALLVALUE DUP1 ISZERO PUSH1 0xE JUMPI PUSH0 PUSH0 REVERT JUMPDEST POP CALLER PUSH0 PUSH0 PUSH2 0x100 EXP DUP2 SLOAD DUP2 PUSH20 0xFFFFFFFFFFFFFFFFFFFFFFFFFFFFFFFFFFFFFFFF MUL NOT AND SWAP1 DUP4 PUSH20 0xFFFFFFFFFFFFFFFFFFFFFFFFFFFFFFFFFFFFFFFF AND MUL OR SWAP1 SSTORE POP PUSH2 0xE6F DUP1 PUSH2 0x5B PUSH0 CODECOPY PUSH0 RETURN INVALID PUSH1 0x80 PUSH1 0x40 MSTORE CALLVALUE DUP1 ISZERO PUSH2 0xF JUMPI PUSH0 PUSH0 REVERT JUMPDEST POP PUSH1 0x4 CALLDATASIZE LT PUSH2 0x60 JUMPI PUSH0 CALLDATALOAD PUSH1 0xE0 SHR DUP1 PUSH4 0x13D7966C EQ PUSH2 0x64 JUMPI DUP1 PUSH4 0x7EEA7009 EQ PUSH2 0x96 JUMPI DUP1 PUSH4 0x8DA5CB5B EQ PUSH2 0xC6 JUMPI DUP1 PUSH4 0xA6AEDAC8 EQ PUSH2 0xE4 JUMPI DUP1 PUSH4 0xEB1841B7 EQ PUSH2 0x114 JUMPI DUP1 PUSH4 0xFD4A77F1 EQ PUSH2 0x130 JUMPI JUMPDEST PUSH0 PUSH0 REVERT JUMPDEST PUSH2 0x7E PUSH1 0x4 DUP1 CALLDATASIZE SUB DUP2 ADD SWAP1 PUSH2 0x79 SWAP2 SWAP1 PUSH2 0x5DB JUMP JUMPDEST PUSH2 0x14C JUMP JUMPDEST PUSH1 0x40 MLOAD PUSH2 0x8D SWAP4 SWAP3 SWAP2 SWAP1 PUSH2 0x685 JUMP JUMPDEST PUSH1 0x40 MLOAD DUP1 SWAP2 SUB SWAP1 RETURN JUMPDEST PUSH2 0xB0 PUSH1 0x4 DUP1 CALLDATASIZE SUB DUP2 ADD SWAP1 PUSH2 0xAB SWAP2 SWAP1 PUSH2 0x5DB JUMP JUMPDEST PUSH2 0x207 JUMP JUMPDEST PUSH1 0x40 MLOAD PUSH2 0xBD SWAP2 SWAP1 PUSH2 0x6C1 JUMP JUMPDEST PUSH1 0x40 MLOAD DUP1 SWAP2 SUB SWAP1 RETURN JUMPDEST PUSH2 0xCE PUSH2 0x27A JUMP JUMPDEST PUSH1 0x40 MLOAD PUSH2 0xDB SWAP2 SWAP1 PUSH2 0x719 JUMP JUMPDEST PUSH1 0x40 MLOAD DUP1 SWAP2 SUB SWAP1 RETURN JUMPDEST PUSH2 0xFE PUSH1 0x4 DUP1 CALLDATASIZE SUB DUP2 ADD SWAP1 PUSH2 0xF9 SWAP2 SWAP1 PUSH2 0x75C JUMP JUMPDEST PUSH2 0x29E JUMP JUMPDEST PUSH1 0x40 MLOAD PUSH2 0x10B SWAP2 SWAP1 PUSH2 0x7A1 JUMP JUMPDEST PUSH1 0x40 MLOAD DUP1 SWAP2 SUB SWAP1 RETURN JUMPDEST PUSH2 0x12E PUSH1 0x4 DUP1 CALLDATASIZE SUB DUP2 ADD SWAP1 PUSH2 0x129 SWAP2 SWAP1 PUSH2 0x8E6 JUMP JUMPDEST PUSH2 0x2BB JUMP JUMPDEST STOP JUMPDEST PUSH2 0x14A PUSH1 0x4 DUP1 CALLDATASIZE SUB DUP2 ADD SWAP1 PUSH2 0x145 SWAP2 SWAP1 PUSH2 0x5DB JUMP JUMPDEST PUSH2 0x3FC JUMP JUMPDEST STOP JUMPDEST PUSH1 0x2 DUP2 DUP2 SLOAD DUP2 LT PUSH2 0x15B JUMPI PUSH0 DUP1 REVERT JUMPDEST SWAP1 PUSH0 MSTORE PUSH1 0x20 PUSH0 KECCAK256 SWAP1 PUSH1 0x3 MUL ADD PUSH0 SWAP2 POP SWAP1 POP DUP1 PUSH0 ADD SLOAD SWAP1 DUP1 PUSH1 0x1 ADD DUP1 SLOAD PUSH2 0x180 SWAP1 PUSH2 0x95A JUMP JUMPDEST DUP1 PUSH1 0x1F ADD PUSH1 0x20 DUP1 SWAP2 DIV MUL PUSH1 0x20 ADD PUSH1 0x40 MLOAD SWAP1 DUP2 ADD PUSH1 0x40 MSTORE DUP1 SWAP3 SWAP2 SWAP1 DUP2 DUP2 MSTORE PUSH1 0x20 ADD DUP3 DUP1 SLOAD PUSH2 0x1AC SWAP1 PUSH2 0x95A JUMP JUMPDEST DUP1 ISZERO PUSH2 0x1F7 JUMPI DUP1 PUSH1 0x1F LT PUSH2 0x1CE JUMPI PUSH2 0x100 DUP1 DUP4 SLOAD DIV MUL DUP4 MSTORE SWAP2 PUSH1 0x20 ADD SWAP2 PUSH2 0x1F7 JUMP JUMPDEST DUP3 ADD SWAP2 SWAP1 PUSH0 MSTORE PUSH1 0x20 PUSH0 KECCAK256 SWAP1 JUMPDEST DUP2 SLOAD DUP2 MSTORE SWAP1 PUSH1 0x1 ADD SWAP1 PUSH1 0x20 ADD DUP1 DUP4 GT PUSH2 0x1DA JUMPI DUP3 SWAP1 SUB PUSH1 0x1F AND DUP3 ADD SWAP2 JUMPDEST POP POP POP POP POP SWAP1 DUP1 PUSH1 0x2 ADD SLOAD SWAP1 POP DUP4 JUMP JUMPDEST PUSH0 PUSH1 0x2 DUP1 SLOAD SWAP1 POP DUP3 LT PUSH2 0x24F JUMPI PUSH1 0x40 MLOAD PUSH32 0x8C379A000000000000000000000000000000000000000000000000000000000 DUP2 MSTORE PUSH1 0x4 ADD PUSH2 0x246 SWAP1 PUSH2 0x9D4 JUMP JUMPDEST PUSH1 0x40 MLOAD DUP1 SWAP2 SUB SWAP1 REVERT JUMPDEST PUSH1 0x2 DUP3 DUP2 SLOAD DUP2 LT PUSH2 0x263 JUMPI PUSH2 0x262 PUSH2 0x9F2 JUMP JUMPDEST JUMPDEST SWAP1 PUSH0 MSTORE PUSH1 0x20 PUSH0 KECCAK256 SWAP1 PUSH1 0x3 MUL ADD PUSH1 0x2 ADD SLOAD SWAP1 POP SWAP2 SWAP1 POP JUMP JUMPDEST PUSH0 PUSH0 SWAP1 SLOAD SWAP1 PUSH2 0x100 EXP SWAP1 DIV PUSH20 0xFFFFFFFFFFFFFFFFFFFFFFFFFFFFFFFFFFFFFFFF AND DUP2 JUMP JUMPDEST PUSH1 0x1 PUSH1 0x20 MSTORE DUP1 PUSH0 MSTORE PUSH1 0x40 PUSH0 KECCAK256 PUSH0 SWAP2 POP SLOAD SWAP1 PUSH2 0x100 EXP SWAP1 DIV PUSH1 0xFF AND DUP2 JUMP JUMPDEST PUSH0 PUSH0 SWAP1 SLOAD SWAP1 PUSH2 0x100 EXP SWAP1 DIV PUSH20 0xFFFFFFFFFFFFFFFFFFFFFFFFFFFFFFFFFFFFFFFF AND PUSH20 0xFFFFFFFFFFFFFFFFFFFFFFFFFFFFFFFFFFFFFFFF AND CALLER PUSH20 0xFFFFFFFFFFFFFFFFFFFFFFFFFFFFFFFFFFFFFFFF AND EQ PUSH2 0x349 JUMPI PUSH1 0x40 MLOAD PUSH32 0x8C379A000000000000000000000000000000000000000000000000000000000 DUP2 MSTORE PUSH1 0x4 ADD PUSH2 0x340 SWAP1 PUSH2 0xA8F JUMP JUMPDEST PUSH1 0x40 MLOAD DUP1 SWAP2 SUB SWAP1 REVERT JUMPDEST PUSH0 PUSH1 0x2 DUP1 SLOAD SWAP1 POP SWAP1 POP PUSH1 0x2 PUSH1 0x40 MLOAD DUP1 PUSH1 0x60 ADD PUSH1 0x40 MSTORE DUP1 DUP4 DUP2 MSTORE PUSH1 0x20 ADD DUP5 DUP2 MSTORE PUSH1 0x20 ADD PUSH0 DUP2 MSTORE POP SWAP1 DUP1 PUSH1 0x1 DUP2 SLOAD ADD DUP1 DUP3 SSTORE DUP1 SWAP2 POP POP PUSH1 0x1 SWAP1 SUB SWAP1 PUSH0 MSTORE PUSH1 0x20 PUSH0 KECCAK256 SWAP1 PUSH1 0x3 MUL ADD PUSH0 SWAP1 SWAP2 SWAP1 SWAP2 SWAP1 SWAP2 POP PUSH0 DUP3 ADD MLOAD DUP2 PUSH0 ADD SSTORE PUSH1 0x20 DUP3 ADD MLOAD DUP2 PUSH1 0x1 ADD SWAP1 DUP2 PUSH2 0x3B2 SWAP2 SWAP1 PUSH2 0xC4D JUMP JUMPDEST POP PUSH1 0x40 DUP3 ADD MLOAD DUP2 PUSH1 0x2 ADD SSTORE POP POP PUSH32 0x59C904FB10FFD1EC07EA779582D8EDC3DBF128BCD3E06442CA216BF782C2F45F DUP2 DUP4 PUSH1 0x40 MLOAD PUSH2 0x3F0 SWAP3 SWAP2 SWAP1 PUSH2 0xD1C JUMP JUMPDEST PUSH1 0x40 MLOAD DUP1 SWAP2 SUB SWAP1 LOG1 POP POP JUMP JUMPDEST PUSH1 0x1 PUSH0 CALLER PUSH20 0xFFFFFFFFFFFFFFFFFFFFFFFFFFFFFFFFFFFFFFFF AND PUSH20 0xFFFFFFFFFFFFFFFFFFFFFFFFFFFFFFFFFFFFFFFF AND DUP2 MSTORE PUSH1 0x20 ADD SWAP1 DUP2 MSTORE PUSH1 0x20 ADD PUSH0 KECCAK256 PUSH0 SWAP1 SLOAD SWAP1 PUSH2 0x100 EXP SWAP1 DIV PUSH1 0xFF AND ISZERO PUSH2 0x486 JUMPI PUSH1 0x40 MLOAD PUSH32 0x8C379A000000000000000000000000000000000000000000000000000000000 DUP2 MSTORE PUSH1 0x4 ADD PUSH2 0x47D SWAP1 PUSH2 0xD94 JUMP JUMPDEST PUSH1 0x40 MLOAD DUP1 SWAP2 SUB SWAP1 REVERT JUMPDEST PUSH1 0x2 DUP1 SLOAD SWAP1 POP DUP2 LT PUSH2 0x4CD JUMPI PUSH1 0x40 MLOAD PUSH32 0x8C379A000000000000000000000000000000000000000000000000000000000 DUP2 MSTORE PUSH1 0x4 ADD PUSH2 0x4C4 SWAP1 PUSH2 0x9D4 JUMP JUMPDEST PUSH1 0x40 MLOAD DUP1 SWAP2 SUB SWAP1 REVERT JUMPDEST PUSH1 0x1 DUP1 PUSH0 CALLER PUSH20 0xFFFFFFFFFFFFFFFFFFFFFFFFFFFFFFFFFFFFFFFF AND PUSH20 0xFFFFFFFFFFFFFFFFFFFFFFFFFFFFFFFFFFFFFFFF AND DUP2 MSTORE PUSH1 0x20 ADD SWAP1 DUP2 MSTORE PUSH1 0x20 ADD PUSH0 KECCAK256 PUSH0 PUSH2 0x100 EXP DUP2 SLOAD DUP2 PUSH1 0xFF MUL NOT AND SWAP1 DUP4 ISZERO ISZERO MUL OR SWAP1 SSTORE POP PUSH1 0x1 PUSH1 0x2 DUP3 DUP2 SLOAD DUP2 LT PUSH2 0x537 JUMPI PUSH2 0x536 PUSH2 0x9F2 JUMP JUMPDEST JUMPDEST SWAP1 PUSH0 MSTORE PUSH1 0x20 PUSH0 KECCAK256 SWAP1 PUSH1 0x3 MUL ADD PUSH1 0x2 ADD PUSH0 DUP3 DUP3 SLOAD PUSH2 0x554 SWAP2 SWAP1 PUSH2 0xDDF JUMP JUMPDEST SWAP3 POP POP DUP2 SWAP1 SSTORE POP PUSH32 0x3D4CCE7AD04B8A795E6C17386CA019B9CCFCC5FE97159CC7B4CF8BA0827D9A74 CALLER DUP3 PUSH1 0x40 MLOAD PUSH2 0x58C SWAP3 SWAP2 SWAP1 PUSH2 0xE12 JUMP JUMPDEST PUSH1 0x40 MLOAD DUP1 SWAP2 SUB SWAP1 LOG1 POP JUMP JUMPDEST PUSH0 PUSH1 0x40 MLOAD SWAP1 POP SWAP1 JUMP JUMPDEST PUSH0 PUSH0 REVERT JUMPDEST PUSH0 PUSH0 REVERT JUMPDEST PUSH0 DUP2 SWAP1 POP SWAP2 SWAP1 POP JUMP JUMPDEST PUSH2 0x5BA DUP2 PUSH2 0x5A8 JUMP JUMPDEST DUP2 EQ PUSH2 0x5C4 JUMPI PUSH0 PUSH0 REVERT JUMPDEST POP JUMP JUMPDEST PUSH0 DUP2 CALLDATALOAD SWAP1 POP PUSH2 0x5D5 DUP2 PUSH2 0x5B1 JUMP JUMPDEST SWAP3 SWAP2 POP POP JUMP JUMPDEST PUSH0 PUSH1 0x20 DUP3 DUP5 SUB SLT ISZERO PUSH2 0x5F0 JUMPI PUSH2 0x5EF PUSH2 0x5A0 JUMP JUMPDEST JUMPDEST PUSH0 PUSH2 0x5FD DUP5 DUP3 DUP6 ADD PUSH2 0x5C7 JUMP JUMPDEST SWAP2 POP POP SWAP3 SWAP2 POP POP JUMP JUMPDEST PUSH2 0x60F DUP2 PUSH2 0x5A8 JUMP JUMPDEST DUP3 MSTORE POP POP JUMP JUMPDEST PUSH0 DUP2 MLOAD SWAP1 POP SWAP2 SWAP1 POP JUMP JUMPDEST PUSH0 DUP3 DUP3 MSTORE PUSH1 0x20 DUP3 ADD SWAP1 POP SWAP3 SWAP2 POP POP JUMP JUMPDEST DUP3 DUP2 DUP4 MCOPY PUSH0 DUP4 DUP4 ADD MSTORE POP POP POP JUMP JUMPDEST PUSH0 PUSH1 0x1F NOT PUSH1 0x1F DUP4 ADD AND SWAP1 POP SWAP2 SWAP1 POP JUMP JUMPDEST PUSH0 PUSH2 0x657 DUP3 PUSH2 0x615 JUMP JUMPDEST PUSH2 0x661 DUP2 DUP6 PUSH2 0x61F JUMP JUMPDEST SWAP4 POP PUSH2 0x671 DUP2 DUP6 PUSH1 0x20 DUP7 ADD PUSH2 0x62F JUMP JUMPDEST PUSH2 0x67A DUP2 PUSH2 0x63D JUMP JUMPDEST DUP5 ADD SWAP2 POP POP SWAP3 SWAP2 POP POP JUMP JUMPDEST PUSH0 PUSH1 0x60 DUP3 ADD SWAP1 POP PUSH2 0x698 PUSH0 DUP4 ADD DUP7 PUSH2 0x606 JUMP JUMPDEST DUP2 DUP2 SUB PUSH1 0x20 DUP4 ADD MSTORE PUSH2 0x6AA DUP2 DUP6 PUSH2 0x64D JUMP JUMPDEST SWAP1 POP PUSH2 0x6B9 PUSH1 0x40 DUP4 ADD DUP5 PUSH2 0x606 JUMP JUMPDEST SWAP5 SWAP4 POP POP POP POP JUMP JUMPDEST PUSH0 PUSH1 0x20 DUP3 ADD SWAP1 POP PUSH2 0x6D4 PUSH0 DUP4 ADD DUP5 PUSH2 0x606 JUMP JUMPDEST SWAP3 SWAP2 POP POP JUMP JUMPDEST PUSH0 PUSH20 0xFFFFFFFFFFFFFFFFFFFFFFFFFFFFFFFFFFFFFFFF DUP3 AND SWAP1 POP SWAP2 SWAP1 POP JUMP JUMPDEST PUSH0 PUSH2 0x703 DUP3 PUSH2 0x6DA JUMP JUMPDEST SWAP1 POP SWAP2 SWAP1 POP JUMP JUMPDEST PUSH2 0x713 DUP2 PUSH2 0x6F9 JUMP JUMPDEST DUP3 MSTORE POP POP JUMP JUMPDEST PUSH0 PUSH1 0x20 DUP3 ADD SWAP1 POP PUSH2 0x72C PUSH0 DUP4 ADD DUP5 PUSH2 0x70A JUMP JUMPDEST SWAP3 SWAP2 POP POP JUMP JUMPDEST PUSH2 0x73B DUP2 PUSH2 0x6F9 JUMP JUMPDEST DUP2 EQ PUSH2 0x745 JUMPI PUSH0 PUSH0 REVERT JUMPDEST POP JUMP JUMPDEST PUSH0 DUP2 CALLDATALOAD SWAP1 POP PUSH2 0x756 DUP2 PUSH2 0x732 JUMP JUMPDEST SWAP3 SWAP2 POP POP JUMP JUMPDEST PUSH0 PUSH1 0x20 DUP3 DUP5 SUB SLT ISZERO PUSH2 0x771 JUMPI PUSH2 0x770 PUSH2 0x5A0 JUMP JUMPDEST JUMPDEST PUSH0 PUSH2 0x77E DUP5 DUP3 DUP6 ADD PUSH2 0x748 JUMP JUMPDEST SWAP2 POP POP SWAP3 SWAP2 POP POP JUMP JUMPDEST PUSH0 DUP2 ISZERO ISZERO SWAP1 POP SWAP2 SWAP1 POP JUMP JUMPDEST PUSH2 0x79B DUP2 PUSH2 0x787 JUMP JUMPDEST DUP3 MSTORE POP POP JUMP JUMPDEST PUSH0 PUSH1 0x20 DUP3 ADD SWAP1 POP PUSH2 0x7B4 PUSH0 DUP4 ADD DUP5 PUSH2 0x792 JUMP JUMPDEST SWAP3 SWAP2 POP POP JUMP JUMPDEST PUSH0 PUSH0 REVERT JUMPDEST PUSH0 PUSH0 REVERT JUMPDEST PUSH32 0x4E487B7100000000000000000000000000000000000000000000000000000000 PUSH0 MSTORE PUSH1 0x41 PUSH1 0x4 MSTORE PUSH1 0x24 PUSH0 REVERT JUMPDEST PUSH2 0x7F8 DUP3 PUSH2 0x63D JUMP JUMPDEST DUP2 ADD DUP2 DUP2 LT PUSH8 0xFFFFFFFFFFFFFFFF DUP3 GT OR ISZERO PUSH2 0x817 JUMPI PUSH2 0x816 PUSH2 0x7C2 JUMP JUMPDEST JUMPDEST DUP1 PUSH1 0x40 MSTORE POP POP POP JUMP JUMPDEST PUSH0 PUSH2 0x829 PUSH2 0x597 JUMP JUMPDEST SWAP1 POP PUSH2 0x835 DUP3 DUP3 PUSH2 0x7EF JUMP JUMPDEST SWAP2 SWAP1 POP JUMP JUMPDEST PUSH0 PUSH8 0xFFFFFFFFFFFFFFFF DUP3 GT ISZERO PUSH2 0x854 JUMPI PUSH2 0x853 PUSH2 0x7C2 JUMP JUMPDEST JUMPDEST PUSH2 0x85D DUP3 PUSH2 0x63D JUMP JUMPDEST SWAP1 POP PUSH1 0x20 DUP2 ADD SWAP1 POP SWAP2 SWAP1 POP JUMP JUMPDEST DUP3 DUP2 DUP4 CALLDATACOPY PUSH0 DUP4 DUP4 ADD MSTORE POP POP POP JUMP JUMPDEST PUSH0 PUSH2 0x88A PUSH2 0x885 DUP5 PUSH2 0x83A JUMP JUMPDEST PUSH2 0x820 JUMP JUMPDEST SWAP1 POP DUP3 DUP2 MSTORE PUSH1 0x20 DUP2 ADD DUP5 DUP5 DUP5 ADD GT ISZERO PUSH2 0x8A6 JUMPI PUSH2 0x8A5 PUSH2 0x7BE JUMP JUMPDEST JUMPDEST PUSH2 0x8B1 DUP5 DUP3 DUP6 PUSH2 0x86A JUMP JUMPDEST POP SWAP4 SWAP3 POP POP POP JUMP JUMPDEST PUSH0 DUP3 PUSH1 0x1F DUP4 ADD SLT PUSH2 0x8CD JUMPI PUSH2 0x8CC PUSH2 0x7BA JUMP JUMPDEST JUMPDEST DUP2 CALLDATALOAD PUSH2 0x8DD DUP5 DUP3 PUSH1 0x20 DUP7 ADD PUSH2 0x878 JUMP JUMPDEST SWAP2 POP POP SWAP3 SWAP2 POP POP JUMP JUMPDEST PUSH0 PUSH1 0x20 DUP3 DUP5 SUB SLT ISZERO PUSH2 0x8FB JUMPI PUSH2 0x8FA PUSH2 0x5A0 JUMP JUMPDEST JUMPDEST PUSH0 DUP3 ADD CALLDATALOAD PUSH8 0xFFFFFFFFFFFFFFFF DUP2 GT ISZERO PUSH2 0x918 JUMPI PUSH2 0x917 PUSH2 0x5A4 JUMP JUMPDEST JUMPDEST PUSH2 0x924 DUP5 DUP3 DUP6 ADD PUSH2 0x8B9 JUMP JUMPDEST SWAP2 POP POP SWAP3 SWAP2 POP POP JUMP JUMPDEST PUSH32 0x4E487B7100000000000000000000000000000000000000000000000000000000 PUSH0 MSTORE PUSH1 0x22 PUSH1 0x4 MSTORE PUSH1 0x24 PUSH0 REVERT JUMPDEST PUSH0 PUSH1 0x2 DUP3 DIV SWAP1 POP PUSH1 0x1 DUP3 AND DUP1 PUSH2 0x971 JUMPI PUSH1 0x7F DUP3 AND SWAP2 POP JUMPDEST PUSH1 0x20 DUP3 LT DUP2 SUB PUSH2 0x984 JUMPI PUSH2 0x983 PUSH2 0x92D JUMP JUMPDEST JUMPDEST POP SWAP2 SWAP1 POP JUMP JUMPDEST PUSH32 0x4944206B616E646964617420746964616B2076616C6964000000000000000000 PUSH0 DUP3 ADD MSTORE POP JUMP JUMPDEST PUSH0 PUSH2 0x9BE PUSH1 0x17 DUP4 PUSH2 0x61F JUMP JUMPDEST SWAP2 POP PUSH2 0x9C9 DUP3 PUSH2 0x98A JUMP JUMPDEST PUSH1 0x20 DUP3 ADD SWAP1 POP SWAP2 SWAP1 POP JUMP JUMPDEST PUSH0 PUSH1 0x20 DUP3 ADD SWAP1 POP DUP2 DUP2 SUB PUSH0 DUP4 ADD MSTORE PUSH2 0x9EB DUP2 PUSH2 0x9B2 JUMP JUMPDEST SWAP1 POP SWAP2 SWAP1 POP JUMP JUMPDEST PUSH32 0x4E487B7100000000000000000000000000000000000000000000000000000000 PUSH0 MSTORE PUSH1 0x32 PUSH1 0x4 MSTORE PUSH1 0x24 PUSH0 REVERT JUMPDEST PUSH32 0x48616E7961206F776E65722079616E672062697361206D656C616B756B616E6E PUSH0 DUP3 ADD MSTORE PUSH32 0x7961000000000000000000000000000000000000000000000000000000000000 PUSH1 0x20 DUP3 ADD MSTORE POP JUMP JUMPDEST PUSH0 PUSH2 0xA79 PUSH1 0x22 DUP4 PUSH2 0x61F JUMP JUMPDEST SWAP2 POP PUSH2 0xA84 DUP3 PUSH2 0xA1F JUMP JUMPDEST PUSH1 0x40 DUP3 ADD SWAP1 POP SWAP2 SWAP1 POP JUMP JUMPDEST PUSH0 PUSH1 0x20 DUP3 ADD SWAP1 POP DUP2 DUP2 SUB PUSH0 DUP4 ADD MSTORE PUSH2 0xAA6 DUP2 PUSH2 0xA6D JUMP JUMPDEST SWAP1 POP SWAP2 SWAP1 POP JUMP JUMPDEST PUSH0 DUP2 SWAP1 POP DUP2 PUSH0 MSTORE PUSH1 0x20 PUSH0 KECCAK256 SWAP1 POP SWAP2 SWAP1 POP JUMP JUMPDEST PUSH0 PUSH1 0x20 PUSH1 0x1F DUP4 ADD DIV SWAP1 POP SWAP2 SWAP1 POP JUMP JUMPDEST PUSH0 DUP3 DUP3 SHL SWAP1 POP SWAP3 SWAP2 POP POP JUMP JUMPDEST PUSH0 PUSH1 0x8 DUP4 MUL PUSH2 0xB09 PUSH32 0xFFFFFFFFFFFFFFFFFFFFFFFFFFFFFFFFFFFFFFFFFFFFFFFFFFFFFFFFFFFFFFFF DUP3 PUSH2 0xACE JUMP JUMPDEST PUSH2 0xB13 DUP7 DUP4 PUSH2 0xACE JUMP JUMPDEST SWAP6 POP DUP1 NOT DUP5 AND SWAP4 POP DUP1 DUP7 AND DUP5 OR SWAP3 POP POP POP SWAP4 SWAP3 POP POP POP JUMP JUMPDEST PUSH0 DUP2 SWAP1 POP SWAP2 SWAP1 POP JUMP JUMPDEST PUSH0 PUSH2 0xB4E PUSH2 0xB49 PUSH2 0xB44 DUP5 PUSH2 0x5A8 JUMP JUMPDEST PUSH2 0xB2B JUMP JUMPDEST PUSH2 0x5A8 JUMP JUMPDEST SWAP1 POP SWAP2 SWAP1 POP JUMP JUMPDEST PUSH0 DUP2 SWAP1 POP SWAP2 SWAP1 POP JUMP JUMPDEST PUSH2 0xB67 DUP4 PUSH2 0xB34 JUMP JUMPDEST PUSH2 0xB7B PUSH2 0xB73 DUP3 PUSH2 0xB55 JUMP JUMPDEST DUP5 DUP5 SLOAD PUSH2 0xADA JUMP JUMPDEST DUP3 SSTORE POP POP POP POP JUMP JUMPDEST PUSH0 PUSH0 SWAP1 POP SWAP1 JUMP JUMPDEST PUSH2 0xB92 PUSH2 0xB83 JUMP JUMPDEST PUSH2 0xB9D DUP2 DUP5 DUP5 PUSH2 0xB5E JUMP JUMPDEST POP POP POP JUMP JUMPDEST JUMPDEST DUP2 DUP2 LT ISZERO PUSH2 0xBC0 JUMPI PUSH2 0xBB5 PUSH0 DUP3 PUSH2 0xB8A JUMP JUMPDEST PUSH1 0x1 DUP2 ADD SWAP1 POP PUSH2 0xBA3 JUMP JUMPDEST POP POP JUMP JUMPDEST PUSH1 0x1F DUP3 GT ISZERO PUSH2 0xC05 JUMPI PUSH2 0xBD6 DUP2 PUSH2 0xAAD JUMP JUMPDEST PUSH2 0xBDF DUP5 PUSH2 0xABF JUMP JUMPDEST DUP2 ADD PUSH1 0x20 DUP6 LT ISZERO PUSH2 0xBEE JUMPI DUP2 SWAP1 POP JUMPDEST PUSH2 0xC02 PUSH2 0xBFA DUP6 PUSH2 0xABF JUMP JUMPDEST DUP4 ADD DUP3 PUSH2 0xBA2 JUMP JUMPDEST POP POP JUMPDEST POP POP POP JUMP JUMPDEST PUSH0 DUP3 DUP3 SHR SWAP1 POP SWAP3 SWAP2 POP POP JUMP JUMPDEST PUSH0 PUSH2 0xC25 PUSH0 NOT DUP5 PUSH1 0x8 MUL PUSH2 0xC0A JUMP JUMPDEST NOT DUP1 DUP4 AND SWAP2 POP POP SWAP3 SWAP2 POP POP JUMP JUMPDEST PUSH0 PUSH2 0xC3D DUP4 DUP4 PUSH2 0xC16 JUMP JUMPDEST SWAP2 POP DUP3 PUSH1 0x2 MUL DUP3 OR SWAP1 POP SWAP3 SWAP2 POP POP JUMP JUMPDEST PUSH2 0xC56 DUP3 PUSH2 0x615 JUMP JUMPDEST PUSH8 0xFFFFFFFFFFFFFFFF DUP2 GT ISZERO PUSH2 0xC6F JUMPI PUSH2 0xC6E PUSH2 0x7C2 JUMP JUMPDEST JUMPDEST PUSH2 0xC79 DUP3 SLOAD PUSH2 0x95A JUMP JUMPDEST PUSH2 0xC84 DUP3 DUP3 DUP6 PUSH2 0xBC4 JUMP JUMPDEST PUSH0 PUSH1 0x20 SWAP1 POP PUSH1 0x1F DUP4 GT PUSH1 0x1 DUP2 EQ PUSH2 0xCB5 JUMPI PUSH0 DUP5 ISZERO PUSH2 0xCA3 JUMPI DUP3 DUP8 ADD MLOAD SWAP1 POP JUMPDEST PUSH2 0xCAD DUP6 DUP3 PUSH2 0xC32 JUMP JUMPDEST DUP7 SSTORE POP PUSH2 0xD14 JUMP JUMPDEST PUSH1 0x1F NOT DUP5 AND PUSH2 0xCC3 DUP7 PUSH2 0xAAD JUMP JUMPDEST PUSH0 JUMPDEST DUP3 DUP2 LT ISZERO PUSH2 0xCEA JUMPI DUP5 DUP10 ADD MLOAD DUP3 SSTORE PUSH1 0x1 DUP3 ADD SWAP2 POP PUSH1 0x20 DUP6 ADD SWAP5 POP PUSH1 0x20 DUP2 ADD SWAP1 POP PUSH2 0xCC5 JUMP JUMPDEST DUP7 DUP4 LT ISZERO PUSH2 0xD07 JUMPI DUP5 DUP10 ADD MLOAD PUSH2 0xD03 PUSH1 0x1F DUP10 AND DUP3 PUSH2 0xC16 JUMP JUMPDEST DUP4 SSTORE POP JUMPDEST PUSH1 0x1 PUSH1 0x2 DUP9 MUL ADD DUP9 SSTORE POP POP POP JUMPDEST POP POP POP POP POP POP JUMP JUMPDEST PUSH0 PUSH1 0x40 DUP3 ADD SWAP1 POP PUSH2 0xD2F PUSH0 DUP4 ADD DUP6 PUSH2 0x606 JUMP JUMPDEST DUP2 DUP2 SUB PUSH1 0x20 DUP4 ADD MSTORE PUSH2 0xD41 DUP2 DUP5 PUSH2 0x64D JUMP JUMPDEST SWAP1 POP SWAP4 SWAP3 POP POP POP JUMP JUMPDEST PUSH32 0x416E646120737564616820766F74696E67210000000000000000000000000000 PUSH0 DUP3 ADD MSTORE POP JUMP JUMPDEST PUSH0 PUSH2 0xD7E PUSH1 0x12 DUP4 PUSH2 0x61F JUMP JUMPDEST SWAP2 POP PUSH2 0xD89 DUP3 PUSH2 0xD4A JUMP JUMPDEST PUSH1 0x20 DUP3 ADD SWAP1 POP SWAP2 SWAP1 POP JUMP JUMPDEST PUSH0 PUSH1 0x20 DUP3 ADD SWAP1 POP DUP2 DUP2 SUB PUSH0 DUP4 ADD MSTORE PUSH2 0xDAB DUP2 PUSH2 0xD72 JUMP JUMPDEST SWAP1 POP SWAP2 SWAP1 POP JUMP JUMPDEST PUSH32 0x4E487B7100000000000000000000000000000000000000000000000000000000 PUSH0 MSTORE PUSH1 0x11 PUSH1 0x4 MSTORE PUSH1 0x24 PUSH0 REVERT JUMPDEST PUSH0 PUSH2 0xDE9 DUP3 PUSH2 0x5A8 JUMP JUMPDEST SWAP2 POP PUSH2 0xDF4 DUP4 PUSH2 0x5A8 JUMP JUMPDEST SWAP3 POP DUP3 DUP3 ADD SWAP1 POP DUP1 DUP3 GT ISZERO PUSH2 0xE0C JUMPI PUSH2 0xE0B PUSH2 0xDB2 JUMP JUMPDEST JUMPDEST SWAP3 SWAP2 POP POP JUMP JUMPDEST PUSH0 PUSH1 0x40 DUP3 ADD SWAP1 POP PUSH2 0xE25 PUSH0 DUP4 ADD DUP6 PUSH2 0x70A JUMP JUMPDEST PUSH2 0xE32 PUSH1 0x20 DUP4 ADD DUP5 PUSH2 0x606 JUMP JUMPDEST SWAP4 SWAP3 POP POP POP JUMP INVALID LOG2 PUSH5 0x6970667358 0x22 SLT KECCAK256 0x4E AND CREATE 0xD 0xC8 0xDA PUSH14 0x3CD0E26FAF62091153548C6D05CF INVALID BLOBHASH RJUMPI 0xA6E9 SLOAD 0xD CALLF 0xCB57 0xDD PUSH5 0x736F6C6343 STOP ADDMOD 0x1E STOP CALLER "
		},
		"gasEstimates": {
			"creation": {
				"codeDepositCost": "739000",
				"executionCost": "25035",
				"totalCost": "764035"
			},
			"external": {
				"daftarKandidat(uint256)": "infinite",
				"getSuaraKandidat(uint256)": "infinite",
				"owner()": "2529",
				"sudahVoting(address)": "2877",
				"tambahKandidat(string)": "infinite",
				"voting(uint256)": "infinite"
			}
		},
		"methodIdentifiers": {
			"daftarKandidat(uint256)": "13d7966c",
			"getSuaraKandidat(uint256)": "7eea7009",
			"owner()": "8da5cb5b",
			"sudahVoting(address)": "a6aedac8",
			"tambahKandidat(string)": "eb1841b7",
			"voting(uint256)": "fd4a77f1"
		}
	},
	"abi": [
		{
			"inputs": [],
			"stateMutability": "nonpayable",
			"type": "constructor"
		},
		{
			"anonymous": false,
			"inputs": [
				{
					"indexed": false,
					"internalType": "uint256",
					"name": "id",
					"type": "uint256"
				},
				{
					"indexed": false,
					"internalType": "string",
					"name": "nama",
					"type": "string"
				}
			],
			"name": "KandidatDitambah",
			"type": "event"
		},
		{
			"anonymous": false,
			"inputs": [
				{
					"indexed": false,
					"internalType": "address",
					"name": "voter",
					"type": "address"
				},
				{
					"indexed": false,
					"internalType": "uint256",
					"name": "kandidatId",
					"type": "uint256"
				}
			],
			"name": "SudahVoting",
			"type": "event"
		},
		{
			"inputs": [
				{
					"internalType": "uint256",
					"name": "",
					"type": "uint256"
				}
			],
			"name": "daftarKandidat",
			"outputs": [
				{
					"internalType": "uint256",
					"name": "id",
					"type": "uint256"
				},
				{
					"internalType": "string",
					"name": "nama",
					"type": "string"
				},
				{
					"internalType": "uint256",
					"name": "suara",
					"type": "uint256"
				}
			],
			"stateMutability": "view",
			"type": "function"
		},
		{
			"inputs": [
				{
					"internalType": "uint256",
					"name": "_kandidatId",
					"type": "uint256"
				}
			],
			"name": "getSuaraKandidat",
			"outputs": [
				{
					"internalType": "uint256",
					"name": "",
					"type": "uint256"
				}
			],
			"stateMutability": "view",
			"type": "function"
		},
		{
			"inputs": [],
			"name": "owner",
			"outputs": [
				{
					"internalType": "address",
					"name": "",
					"type": "address"
				}
			],
			"stateMutability": "view",
			"type": "function"
		},
		{
			"inputs": [
				{
					"internalType": "address",
					"name": "",
					"type": "address"
				}
			],
			"name": "sudahVoting",
			"outputs": [
				{
					"internalType": "bool",
					"name": "",
					"type": "bool"
				}
			],
			"stateMutability": "view",
			"type": "function"
		},
		{
			"inputs": [
				{
					"internalType": "string",
					"name": "_nama",
					"type": "string"
				}
			],
			"name": "tambahKandidat",
			"outputs": [],
			"stateMutability": "nonpayable",
			"type": "function"
		},
		{
			"inputs": [
				{
					"internalType": "uint256",
					"name": "_kandidatId",
					"type": "uint256"
				}
			],
			"name": "voting",
			"outputs": [],
			"stateMutability": "nonpayable",
			"type": "function"
		}
	]
}